{
  "contractName": "Company",
  "abi": [
    {
      "constant": true,
      "inputs": [],
      "name": "getCompanyAddress",
      "outputs": [
        {
          "name": "",
          "type": "address"
        }
      ],
      "payable": false,
      "stateMutability": "view",
      "type": "function"
    },
    {
      "constant": true,
      "inputs": [],
      "name": "getCompanyName",
      "outputs": [
        {
          "name": "",
          "type": "string"
        }
      ],
      "payable": false,
      "stateMutability": "view",
      "type": "function"
    },
    {
      "constant": true,
      "inputs": [],
      "name": "existsCompany",
      "outputs": [
        {
          "name": "",
          "type": "bool"
        }
      ],
      "payable": false,
      "stateMutability": "view",
      "type": "function"
    },
    {
      "constant": false,
      "inputs": [
        {
          "name": "_name",
          "type": "string"
        }
      ],
      "name": "createCompany",
      "outputs": [],
      "payable": false,
      "stateMutability": "nonpayable",
      "type": "function"
    },
    {
      "anonymous": false,
      "inputs": [
        {
          "indexed": false,
          "name": "description",
          "type": "string"
        },
        {
          "indexed": false,
          "name": "_workerAddress",
          "type": "address"
        }
      ],
      "name": "logWorkerAdded",
      "type": "event"
    },
    {
      "anonymous": false,
      "inputs": [
        {
          "indexed": false,
          "name": "description",
          "type": "string"
        },
        {
          "indexed": false,
          "name": "_workerAddress",
          "type": "address"
        },
        {
          "indexed": false,
          "name": "_day",
          "type": "string"
        }
      ],
      "name": "logTrackAdded",
      "type": "event"
    },
    {
      "anonymous": false,
      "inputs": [
        {
          "indexed": false,
          "name": "description",
          "type": "string"
        },
        {
          "indexed": false,
          "name": "_workerAddress",
          "type": "address"
        },
        {
          "indexed": false,
          "name": "_track",
          "type": "uint256"
        }
      ],
      "name": "logValidated",
      "type": "event"
    },
    {
      "anonymous": false,
      "inputs": [
        {
          "indexed": false,
          "name": "description",
          "type": "string"
        },
        {
          "indexed": false,
          "name": "_addressCompany",
          "type": "address"
        }
      ],
      "name": "logCompanyCreated",
      "type": "event"
    },
    {
      "constant": true,
      "inputs": [
        {
          "name": "_address",
          "type": "address"
        }
      ],
      "name": "isWorker",
      "outputs": [
        {
          "name": "",
          "type": "bool"
        }
      ],
      "payable": false,
      "stateMutability": "view",
      "type": "function"
    },
    {
      "constant": false,
      "inputs": [
        {
          "name": "_worker",
          "type": "address"
        },
        {
          "name": "_workerId",
          "type": "string"
        }
      ],
      "name": "addWorker",
      "outputs": [],
      "payable": false,
      "stateMutability": "nonpayable",
      "type": "function"
    },
    {
      "constant": false,
      "inputs": [
        {
          "name": "_date",
          "type": "string"
        },
        {
          "name": "_category",
          "type": "string"
        },
        {
          "name": "_observations",
          "type": "string"
        },
        {
          "name": "_location",
          "type": "string"
        }
      ],
      "name": "addTrack",
      "outputs": [],
      "payable": false,
      "stateMutability": "nonpayable",
      "type": "function"
    },
    {
      "constant": true,
      "inputs": [
        {
          "name": "_workerAddress",
          "type": "address"
        },
        {
          "name": "_id",
          "type": "uint256"
        }
      ],
      "name": "getTrack",
      "outputs": [
        {
          "name": "",
          "type": "string"
        },
        {
          "name": "",
          "type": "string"
        },
        {
          "name": "",
          "type": "string"
        },
        {
          "name": "",
          "type": "string"
        },
        {
          "name": "",
          "type": "bool"
        },
        {
          "name": "",
          "type": "string"
        }
      ],
      "payable": false,
      "stateMutability": "view",
      "type": "function"
    },
    {
      "constant": true,
      "inputs": [
        {
          "name": "_workerAddress",
          "type": "address"
        }
      ],
      "name": "getNumberTracks",
      "outputs": [
        {
          "name": "",
          "type": "uint256"
        }
      ],
      "payable": false,
      "stateMutability": "view",
      "type": "function"
    },
    {
      "constant": true,
      "inputs": [],
      "name": "getNumberWorkers",
      "outputs": [
        {
          "name": "",
          "type": "uint256"
        }
      ],
      "payable": false,
      "stateMutability": "view",
      "type": "function"
    },
    {
      "constant": true,
      "inputs": [
        {
          "name": "i",
          "type": "uint256"
        }
      ],
      "name": "getWorker",
      "outputs": [
        {
          "name": "",
          "type": "address"
        }
      ],
      "payable": false,
      "stateMutability": "view",
      "type": "function"
    },
    {
      "constant": true,
      "inputs": [
        {
          "name": "_workerAddress",
          "type": "address"
        }
      ],
      "name": "getWorkerId",
      "outputs": [
        {
          "name": "",
          "type": "string"
        }
      ],
      "payable": false,
      "stateMutability": "view",
      "type": "function"
    },
    {
      "constant": false,
      "inputs": [
        {
          "name": "_workerAddress",
          "type": "address"
        },
        {
          "name": "_id",
          "type": "uint256"
        }
      ],
      "name": "validate",
      "outputs": [],
      "payable": false,
      "stateMutability": "nonpayable",
      "type": "function"
    }
  ],
  "bytecode": "0x608060405234801561001057600080fd5b50611d06806100206000396000f3fe6080604052600436106100c5576000357c0100000000000000000000000000000000000000000000000000000000900463ffffffff1680631f71afa8146100ca5780632b963734146103575780633944615c1461038257806343cfbd65146103d95780637123b23a146104695780637b4bcd761461049857806398e0ae1414610562578063a39dbdb9146105bd578063a9a44a0814610638578063aa1566451461069d578063c531b79514610706578063e33f874c14610995578063fd7f611e14610a7d575b600080fd5b3480156100d657600080fd5b50610355600480360360808110156100ed57600080fd5b810190808035906020019064010000000081111561010a57600080fd5b82018360208201111561011c57600080fd5b8035906020019184600183028401116401000000008311171561013e57600080fd5b91908080601f016020809104026020016040519081016040528093929190818152602001838380828437600081840152601f19601f820116905080830192505050505050509192919290803590602001906401000000008111156101a157600080fd5b8201836020820111156101b357600080fd5b803590602001918460018302840111640100000000831117156101d557600080fd5b91908080601f016020809104026020016040519081016040528093929190818152602001838380828437600081840152601f19601f8201169050808301925050505050505091929192908035906020019064010000000081111561023857600080fd5b82018360208201111561024a57600080fd5b8035906020019184600183028401116401000000008311171561026c57600080fd5b91908080601f016020809104026020016040519081016040528093929190818152602001838380828437600081840152601f19601f820116905080830192505050505050509192919290803590602001906401000000008111156102cf57600080fd5b8201836020820111156102e157600080fd5b8035906020019184600183028401116401000000008311171561030357600080fd5b91908080601f016020809104026020016040519081016040528093929190818152602001838380828437600081840152601f19601f820116905080830192505050505050509192919290505050610b45565b005b34801561036357600080fd5b5061036c610de9565b6040518082815260200191505060405180910390f35b34801561038e57600080fd5b50610397610df3565b604051808273ffffffffffffffffffffffffffffffffffffffff1673ffffffffffffffffffffffffffffffffffffffff16815260200191505060405180910390f35b3480156103e557600080fd5b506103ee610e1d565b6040518080602001828103825283818151815260200191508051906020019080838360005b8381101561042e578082015181840152602081019050610413565b50505050905090810190601f16801561045b5780820380516001836020036101000a031916815260200191505b509250505060405180910390f35b34801561047557600080fd5b5061047e610ebf565b604051808215151515815260200191505060405180910390f35b3480156104a457600080fd5b506104e7600480360360208110156104bb57600080fd5b81019080803573ffffffffffffffffffffffffffffffffffffffff169060200190929190505050610f28565b6040518080602001828103825283818151815260200191508051906020019080838360005b8381101561052757808201518184015260208101905061050c565b50505050905090810190601f1680156105545780820380516001836020036101000a031916815260200191505b509250505060405180910390f35b34801561056e57600080fd5b506105bb6004803603604081101561058557600080fd5b81019080803573ffffffffffffffffffffffffffffffffffffffff1690602001909291908035906020019092919050505061100c565b005b3480156105c957600080fd5b506105f6600480360360208110156105e057600080fd5b81019080803590602001909291905050506111e5565b604051808273ffffffffffffffffffffffffffffffffffffffff1673ffffffffffffffffffffffffffffffffffffffff16815260200191505060405180910390f35b34801561064457600080fd5b506106876004803603602081101561065b57600080fd5b81019080803573ffffffffffffffffffffffffffffffffffffffff169060200190929190505050611222565b6040518082815260200191505060405180910390f35b3480156106a957600080fd5b506106ec600480360360208110156106c057600080fd5b81019080803573ffffffffffffffffffffffffffffffffffffffff16906020019092919050505061126e565b604051808215151515815260200191505060405180910390f35b34801561071257600080fd5b5061075f6004803603604081101561072957600080fd5b81019080803573ffffffffffffffffffffffffffffffffffffffff169060200190929190803590602001909291905050506112c4565b6040518080602001806020018060200180602001871515151581526020018060200186810386528c818151815260200191508051906020019080838360005b838110156107b957808201518184015260208101905061079e565b50505050905090810190601f1680156107e65780820380516001836020036101000a031916815260200191505b5086810385528b818151815260200191508051906020019080838360005b8381101561081f578082015181840152602081019050610804565b50505050905090810190601f16801561084c5780820380516001836020036101000a031916815260200191505b5086810384528a818151815260200191508051906020019080838360005b8381101561088557808201518184015260208101905061086a565b50505050905090810190601f1680156108b25780820380516001836020036101000a031916815260200191505b50868103835289818151815260200191508051906020019080838360005b838110156108eb5780820151818401526020810190506108d0565b50505050905090810190601f1680156109185780820380516001836020036101000a031916815260200191505b50868103825287818151815260200191508051906020019080838360005b83811015610951578082015181840152602081019050610936565b50505050905090810190601f16801561097e5780820380516001836020036101000a031916815260200191505b509b50505050505050505050505060405180910390f35b3480156109a157600080fd5b50610a7b600480360360408110156109b857600080fd5b81019080803573ffffffffffffffffffffffffffffffffffffffff169060200190929190803590602001906401000000008111156109f557600080fd5b820183602082011115610a0757600080fd5b80359060200191846001830284011164010000000083111715610a2957600080fd5b91908080601f016020809104026020016040519081016040528093929190818152602001838380828437600081840152601f19601f820116905080830192505050505050509192919290505050611834565b005b348015610a8957600080fd5b50610b4360048036036020811015610aa057600080fd5b8101908080359060200190640100000000811115610abd57600080fd5b820183602082011115610acf57600080fd5b80359060200191846001830284011164010000000083111715610af157600080fd5b91908080601f016020809104026020016040519081016040528093929190818152602001838380828437600081840152601f19601f820116905080830192505050505050509192919290505050611a7b565b005b610b4e3361126e565b1515610b5957600080fd5b600360003373ffffffffffffffffffffffffffffffffffffffff1673ffffffffffffffffffffffffffffffffffffffff16815260200190815260200160002060010160a06040519081016040528086815260200185815260200184815260200183815260200160001515815250908060018154018082558091505090600182039060005260206000209060050201600090919290919091506000820151816000019080519060200190610c0d929190611bb5565b506020820151816001019080519060200190610c2a929190611bb5565b506040820151816002019080519060200190610c47929190611bb5565b506060820151816003019080519060200190610c64929190611bb5565b5060808201518160040160006101000a81548160ff021916908315150217905550505050600360003373ffffffffffffffffffffffffffffffffffffffff1673ffffffffffffffffffffffffffffffffffffffff168152602001908152602001600020600201600081548092919060010191905055507fdc4faac2bbc298386a0eb8478795c3efe7e5ec98f20021f19633cd206d688b17338560405180806020018473ffffffffffffffffffffffffffffffffffffffff1673ffffffffffffffffffffffffffffffffffffffff16815260200180602001838103835260188152602001807f547261636b20616464656420666f7220776f726b65723a200000000000000000815250602001838103825284818151815260200191508051906020019080838360005b83811015610da7578082015181840152602081019050610d8c565b50505050905090810190601f168015610dd45780820380516001836020036101000a031916815260200191505b5094505050505060405180910390a150505050565b6000600254905090565b6000600160009054906101000a900473ffffffffffffffffffffffffffffffffffffffff16905090565b606060008054600181600116156101000203166002900480601f016020809104026020016040519081016040528092919081815260200182805460018160011615610100020316600290048015610eb55780601f10610e8a57610100808354040283529160200191610eb5565b820191906000526020600020905b815481529060010190602001808311610e9857829003601f168201915b5050505050905090565b60008073ffffffffffffffffffffffffffffffffffffffff16600160009054906101000a900473ffffffffffffffffffffffffffffffffffffffff1673ffffffffffffffffffffffffffffffffffffffff161415610f205760009050610f25565b600190505b90565b6060600360008373ffffffffffffffffffffffffffffffffffffffff1673ffffffffffffffffffffffffffffffffffffffff1681526020019081526020016000206000018054600181600116156101000203166002900480601f0160208091040260200160405190810160405280929190818152602001828054600181600116156101000203166002900480156110005780601f10610fd557610100808354040283529160200191611000565b820191906000526020600020905b815481529060010190602001808311610fe357829003601f168201915b50505050509050919050565b600160009054906101000a900473ffffffffffffffffffffffffffffffffffffffff1673ffffffffffffffffffffffffffffffffffffffff163373ffffffffffffffffffffffffffffffffffffffff1614151561106857600080fd5b3373ffffffffffffffffffffffffffffffffffffffff16600160009054906101000a900473ffffffffffffffffffffffffffffffffffffffff1673ffffffffffffffffffffffffffffffffffffffff161415156110c457600080fd5b6001600360008473ffffffffffffffffffffffffffffffffffffffff1673ffffffffffffffffffffffffffffffffffffffff1681526020019081526020016000206001018281548110151561111557fe5b906000526020600020906005020160040160006101000a81548160ff0219169083151502179055507fe8c478ec48b2b37c28cf7ab8151149206399fe92c0ff771b854fb168e1269d23828260405180806020018473ffffffffffffffffffffffffffffffffffffffff1673ffffffffffffffffffffffffffffffffffffffff1681526020018381526020018281038252601c8152602001807f547261636b2076616c69646174656420666f7220776f726b65723a2000000000815250602001935050505060405180910390a15050565b60006004600083815260200190815260200160002060009054906101000a900473ffffffffffffffffffffffffffffffffffffffff169050919050565b6000600360008373ffffffffffffffffffffffffffffffffffffffff1673ffffffffffffffffffffffffffffffffffffffff168152602001908152602001600020600201549050919050565b6000600560008373ffffffffffffffffffffffffffffffffffffffff1673ffffffffffffffffffffffffffffffffffffffff16815260200190815260200160002060009054906101000a900460ff169050919050565b6060806060806000606080600360008a73ffffffffffffffffffffffffffffffffffffffff1673ffffffffffffffffffffffffffffffffffffffff1681526020019081526020016000206001018881548110151561131e57fe5b90600052602060002090600502016000018054600181600116156101000203166002900480601f0160208091040260200160405190810160405280929190818152602001828054600181600116156101000203166002900480156113c35780601f10611398576101008083540402835291602001916113c3565b820191906000526020600020905b8154815290600101906020018083116113a657829003601f168201915b505050505090506060600360008b73ffffffffffffffffffffffffffffffffffffffff1673ffffffffffffffffffffffffffffffffffffffff1681526020019081526020016000206001018981548110151561141b57fe5b90600052602060002090600502016001018054600181600116156101000203166002900480601f0160208091040260200160405190810160405280929190818152602001828054600181600116156101000203166002900480156114c05780601f10611495576101008083540402835291602001916114c0565b820191906000526020600020905b8154815290600101906020018083116114a357829003601f168201915b505050505090506060600360008c73ffffffffffffffffffffffffffffffffffffffff1673ffffffffffffffffffffffffffffffffffffffff1681526020019081526020016000206001018a81548110151561151857fe5b90600052602060002090600502016002018054600181600116156101000203166002900480601f0160208091040260200160405190810160405280929190818152602001828054600181600116156101000203166002900480156115bd5780601f10611592576101008083540402835291602001916115bd565b820191906000526020600020905b8154815290600101906020018083116115a057829003601f168201915b505050505090506060600360008d73ffffffffffffffffffffffffffffffffffffffff1673ffffffffffffffffffffffffffffffffffffffff1681526020019081526020016000206001018b81548110151561161557fe5b90600052602060002090600502016003018054600181600116156101000203166002900480601f0160208091040260200160405190810160405280929190818152602001828054600181600116156101000203166002900480156116ba5780601f1061168f576101008083540402835291602001916116ba565b820191906000526020600020905b81548152906001019060200180831161169d57829003601f168201915b505050505090506000600360008e73ffffffffffffffffffffffffffffffffffffffff1673ffffffffffffffffffffffffffffffffffffffff1681526020019081526020016000206001018c81548110151561171257fe5b906000526020600020906005020160040160009054906101000a900460ff1690506060600360008f73ffffffffffffffffffffffffffffffffffffffff1673ffffffffffffffffffffffffffffffffffffffff1681526020019081526020016000206000018054600181600116156101000203166002900480601f01602080910402602001604051908101604052809291908181526020018280546001816001161561010002031660029004801561180b5780601f106117e05761010080835404028352916020019161180b565b820191906000526020600020905b8154815290600101906020018083116117ee57829003601f168201915b505050505090508585858585859b509b509b509b509b509b505050505050509295509295509295565b600160009054906101000a900473ffffffffffffffffffffffffffffffffffffffff1673ffffffffffffffffffffffffffffffffffffffff163373ffffffffffffffffffffffffffffffffffffffff1614151561189057600080fd5b6001151561189d8361126e565b1515141515156118ac57600080fd5b6000600360008473ffffffffffffffffffffffffffffffffffffffff1673ffffffffffffffffffffffffffffffffffffffff168152602001908152602001600020905081816000019080519060200190611907929190611c35565b50600081600201819055506001600560008573ffffffffffffffffffffffffffffffffffffffff1673ffffffffffffffffffffffffffffffffffffffff16815260200190815260200160002060006101000a81548160ff0219169083151502179055508260046000600254815260200190815260200160002060006101000a81548173ffffffffffffffffffffffffffffffffffffffff021916908373ffffffffffffffffffffffffffffffffffffffff1602179055506119d46001600254611b9490919063ffffffff16565b6002819055507f170729216dfdc18376466f68cad01b4f08f5a1fa9eada676728560cb2a5764fe8360405180806020018373ffffffffffffffffffffffffffffffffffffffff1673ffffffffffffffffffffffffffffffffffffffff168152602001828103825260118152602001807f576f726b65722061646465642061743a200000000000000000000000000000008152506020019250505060405180910390a1505050565b8060009080519060200190611a91929190611c35565b5033600160006101000a81548173ffffffffffffffffffffffffffffffffffffffff021916908373ffffffffffffffffffffffffffffffffffffffff1602179055507f6e273d638162f19207d39abf4f5c72d0889913d6761f26b1a2f1b7ad3239503d600160009054906101000a900473ffffffffffffffffffffffffffffffffffffffff1660405180806020018373ffffffffffffffffffffffffffffffffffffffff1673ffffffffffffffffffffffffffffffffffffffff168152602001828103825260148152602001807f436f6d70616e7920637265617465642061743a200000000000000000000000008152506020019250505060405180910390a150565b6000808284019050838110151515611bab57600080fd5b8091505092915050565b828054600181600116156101000203166002900490600052602060002090601f016020900481019282601f10611bf657805160ff1916838001178555611c24565b82800160010185558215611c24579182015b82811115611c23578251825591602001919060010190611c08565b5b509050611c319190611cb5565b5090565b828054600181600116156101000203166002900490600052602060002090601f016020900481019282601f10611c7657805160ff1916838001178555611ca4565b82800160010185558215611ca4579182015b82811115611ca3578251825591602001919060010190611c88565b5b509050611cb19190611cb5565b5090565b611cd791905b80821115611cd3576000816000905550600101611cbb565b5090565b9056fea165627a7a723058204895ea652b253c774fa26a97dc3ec3fd62714c94e4510830b1a3e494966f04c70029",
  "source": "pragma solidity ^0.5.0;\n\nimport \"./SafeMath.sol\";\n\ncontract CompanyOwned {\n\n    string name;\n    address companyAddress;\n\n    event logCompanyCreated(string description, address _addressCompany);\n\n    function createCompany (string memory _name) public {\n        \n        name = _name;\n        companyAddress = msg.sender;\n\n        emit logCompanyCreated(\"Company created at: \", companyAddress);\n    }\n\n    function getCompanyAddress () public view returns (address) {\n        \n        return companyAddress;\n    }\n\n    function getCompanyName () public view returns (string memory) {\n        \n        return name;\n    }\n\n    function existsCompany () public view returns (bool) {\n\n        if (companyAddress == address(0)) {\n            return false;\n        } \n        else return true;\n    }\n\n    modifier onlyCompany () {\n    require(msg.sender == companyAddress);\n    _;\n    }\n}\n\ncontract Company is CompanyOwned {\n    \n    using SafeMath for uint;\n\n    uint numberWorkers;\n    mapping(address => Worker) MapWorkers;\n    mapping(uint => address) IterateWorkers;\n    mapping(address => bool) MapAddressWorkers;\n    \n    struct Worker {\n        \n        string workerId;\n        Track[] tracks;\n        uint lenghtTracks;\n    }\n    \n    struct Track {\n        \n        string date;\n        string category;\n        string observations;\n        string location;\n        bool validated;\n    }\n\n    event logWorkerAdded(string description, address _workerAddress);\n    event logTrackAdded(string description, address _workerAddress, string _day);\n    event logValidated(string description, address _workerAddress, uint _track);\n\n    function isWorker (address _address) public view returns (bool) {\n\n        return MapAddressWorkers[_address];\n    }\n    \n    function addWorker(address _worker, string memory _workerId) public onlyCompany {\n        \n        require(isWorker(_worker) != true);\n        \n        Worker storage newWorker = MapWorkers[_worker];\n        \n        newWorker.workerId = _workerId;\n        newWorker.lenghtTracks = 0;\n\n        MapAddressWorkers[_worker] = true;\n        IterateWorkers[numberWorkers] = _worker;\n        numberWorkers = numberWorkers.add(1);\n\n        emit logWorkerAdded(\"Worker added at: \", _worker);\n    }\n    \n    function addTrack(  \n        string memory _date, \n        string memory _category,\n        string memory _observations,\n        string memory _location) public\n    {\n        require(isWorker(msg.sender));\n\n        MapWorkers[msg.sender].tracks.push(Track(_date, _category, _observations, _location, false));\n        MapWorkers[msg.sender].lenghtTracks++;\n\n        emit logTrackAdded(\"Track added for worker: \", msg.sender, _date);\n    }\n    \n    function getTrack (address _workerAddress, uint _id) public view returns(\n        string memory,\n        string memory,\n        string memory,\n        string memory,\n        bool,\n        string memory) {\n        \n        string memory _date = MapWorkers[_workerAddress].tracks[_id].date;\n        string memory _category = MapWorkers[_workerAddress].tracks[_id].category;\n        string memory _observations = MapWorkers[_workerAddress].tracks[_id].observations;\n        string memory _location = MapWorkers[_workerAddress].tracks[_id].location;\n        bool _validated = MapWorkers[_workerAddress].tracks[_id].validated;\n        string memory _workerId = MapWorkers[_workerAddress].workerId;\n        \n        return(_date, _category, _observations, _location, _validated, _workerId);\n    }\n\n    function getNumberTracks (address _workerAddress) public view returns (uint) {\n\n        return MapWorkers[_workerAddress].lenghtTracks;\n    }\n\n    function getNumberWorkers () public view returns (uint) {\n\n        return numberWorkers;\n    }\n\n    function getWorker (uint i) public view returns (address) {\n\n        return IterateWorkers[i];\n    }\n\n    function getWorkerId (address _workerAddress) public view returns (string memory) {\n\n        return MapWorkers[_workerAddress].workerId;\n    }\n    \n    function validate (address _workerAddress, uint _id) public onlyCompany {\n        \n        require(companyAddress == msg.sender);\n        MapWorkers[_workerAddress].tracks[_id].validated = true;\n\n        emit logValidated(\"Track validated for worker: \", _workerAddress, _id);\n    } \n}",
  "sourcePath": "/Users/juanfornell/Repositories/workdaychain/contracts/Company.sol",
  "compiler": {
    "name": "solc",
    "version": "0.5.0+commit.1d4f565a.Emscripten.clang"
  },
  "schemaVersion": "3.0.2",
  "updatedAt": "2019-04-19T15:57:12.262Z",
  "devdoc": {
    "methods": {}
  },
  "userdoc": {
    "methods": {}
  }
}