{
  "contractName": "CompanyOwned",
  "abi": [
    {
      "anonymous": false,
      "inputs": [
        {
          "indexed": false,
          "name": "description",
          "type": "string"
        },
        {
          "indexed": false,
          "name": "_addressCompany",
          "type": "address"
        }
      ],
      "name": "logCompanyCreated",
      "type": "event"
    },
    {
      "constant": false,
      "inputs": [
        {
          "name": "_name",
          "type": "string"
        }
      ],
      "name": "createCompany",
      "outputs": [],
      "payable": false,
      "stateMutability": "nonpayable",
      "type": "function"
    },
    {
      "constant": true,
      "inputs": [],
      "name": "getCompanyAddress",
      "outputs": [
        {
          "name": "",
          "type": "address"
        }
      ],
      "payable": false,
      "stateMutability": "view",
      "type": "function"
    },
    {
      "constant": true,
      "inputs": [],
      "name": "getCompanyName",
      "outputs": [
        {
          "name": "",
          "type": "string"
        }
      ],
      "payable": false,
      "stateMutability": "view",
      "type": "function"
    },
    {
      "constant": true,
      "inputs": [],
      "name": "existsCompany",
      "outputs": [
        {
          "name": "",
          "type": "bool"
        }
      ],
      "payable": false,
      "stateMutability": "view",
      "type": "function"
    }
  ],
  "bytecode": "0x608060405234801561001057600080fd5b50610564806100206000396000f3fe608060405260043610610062576000357c0100000000000000000000000000000000000000000000000000000000900463ffffffff1680633944615c1461006757806343cfbd65146100be5780637123b23a1461014e578063fd7f611e1461017d575b600080fd5b34801561007357600080fd5b5061007c610245565b604051808273ffffffffffffffffffffffffffffffffffffffff1673ffffffffffffffffffffffffffffffffffffffff16815260200191505060405180910390f35b3480156100ca57600080fd5b506100d361026f565b6040518080602001828103825283818151815260200191508051906020019080838360005b838110156101135780820151818401526020810190506100f8565b50505050905090810190601f1680156101405780820380516001836020036101000a031916815260200191505b509250505060405180910390f35b34801561015a57600080fd5b50610163610311565b604051808215151515815260200191505060405180910390f35b34801561018957600080fd5b50610243600480360360208110156101a057600080fd5b81019080803590602001906401000000008111156101bd57600080fd5b8201836020820111156101cf57600080fd5b803590602001918460018302840111640100000000831117156101f157600080fd5b91908080601f016020809104026020016040519081016040528093929190818152602001838380828437600081840152601f19601f82011690508083019250505050505050919291929050505061037a565b005b6000600160009054906101000a900473ffffffffffffffffffffffffffffffffffffffff16905090565b606060008054600181600116156101000203166002900480601f0160208091040260200160405190810160405280929190818152602001828054600181600116156101000203166002900480156103075780601f106102dc57610100808354040283529160200191610307565b820191906000526020600020905b8154815290600101906020018083116102ea57829003601f168201915b5050505050905090565b60008073ffffffffffffffffffffffffffffffffffffffff16600160009054906101000a900473ffffffffffffffffffffffffffffffffffffffff1673ffffffffffffffffffffffffffffffffffffffff1614156103725760009050610377565b600190505b90565b8060009080519060200190610390929190610493565b5033600160006101000a81548173ffffffffffffffffffffffffffffffffffffffff021916908373ffffffffffffffffffffffffffffffffffffffff1602179055507f6e273d638162f19207d39abf4f5c72d0889913d6761f26b1a2f1b7ad3239503d600160009054906101000a900473ffffffffffffffffffffffffffffffffffffffff1660405180806020018373ffffffffffffffffffffffffffffffffffffffff1673ffffffffffffffffffffffffffffffffffffffff168152602001828103825260148152602001807f436f6d70616e7920637265617465642061743a200000000000000000000000008152506020019250505060405180910390a150565b828054600181600116156101000203166002900490600052602060002090601f016020900481019282601f106104d457805160ff1916838001178555610502565b82800160010185558215610502579182015b828111156105015782518255916020019190600101906104e6565b5b50905061050f9190610513565b5090565b61053591905b80821115610531576000816000905550600101610519565b5090565b9056fea165627a7a72305820b17f679a81cc027f4546c4d7b5d8499fd79c75de0a6aa7b6569dda6b544c40080029",
  "source": "pragma solidity ^0.5.0;\n\nimport \"./SafeMath.sol\";\n\ncontract CompanyOwned {\n\n    string name;\n    address companyAddress;\n\n    event logCompanyCreated(string description, address _addressCompany);\n\n    function createCompany (string memory _name) public {\n        \n        name = _name;\n        companyAddress = msg.sender;\n\n        emit logCompanyCreated(\"Company created at: \", companyAddress);\n    }\n\n    function getCompanyAddress () public view returns (address) {\n        \n        return companyAddress;\n    }\n\n    function getCompanyName () public view returns (string memory) {\n        \n        return name;\n    }\n\n    function existsCompany () public view returns (bool) {\n\n        if (companyAddress == address(0)) {\n            return false;\n        } \n        else return true;\n    }\n\n    modifier onlyCompany () {\n    require(msg.sender == companyAddress);\n    _;\n    }\n}\n\ncontract Company is CompanyOwned {\n    \n    using SafeMath for uint;\n\n    uint numberWorkers;\n    mapping(address => Worker) MapWorkers;\n    mapping(uint => address) IterateWorkers;\n    mapping(address => bool) MapAddressWorkers;\n    \n    struct Worker {\n        \n        string workerId;\n        Track[] tracks;\n        uint lenghtTracks;\n    }\n    \n    struct Track {\n        \n        string date;\n        string category;\n        string observations;\n        string location;\n        bool validated;\n    }\n\n    event logWorkerAdded(string description, address _workerAddress);\n    event logTrackAdded(string description, address _workerAddress, string _day);\n    event logValidated(string description, address _workerAddress, uint _track);\n\n    function isWorker (address _address) public view returns (bool) {\n\n        return MapAddressWorkers[_address];\n    }\n    \n    function addWorker(address _worker, string memory _workerId) public onlyCompany {\n        \n        require(isWorker(_worker) != true);\n        \n        Worker storage newWorker = MapWorkers[_worker];\n        \n        newWorker.workerId = _workerId;\n        newWorker.lenghtTracks = 0;\n\n        MapAddressWorkers[_worker] = true;\n        IterateWorkers[numberWorkers] = _worker;\n        numberWorkers = numberWorkers.add(1);\n\n        emit logWorkerAdded(\"Worker added at: \", _worker);\n    }\n    \n    function addTrack(  \n        string memory _date, \n        string memory _category,\n        string memory _observations,\n        string memory _location) public\n    {\n        require(isWorker(msg.sender));\n\n        MapWorkers[msg.sender].tracks.push(Track(_date, _category, _observations, _location, false));\n        MapWorkers[msg.sender].lenghtTracks++;\n\n        emit logTrackAdded(\"Track added for worker: \", msg.sender, _date);\n    }\n    \n    function getTrack (address _workerAddress, uint _id) public view returns(\n        string memory,\n        string memory,\n        string memory,\n        string memory,\n        bool,\n        string memory) {\n        \n        string memory _date = MapWorkers[_workerAddress].tracks[_id].date;\n        string memory _category = MapWorkers[_workerAddress].tracks[_id].category;\n        string memory _observations = MapWorkers[_workerAddress].tracks[_id].observations;\n        string memory _location = MapWorkers[_workerAddress].tracks[_id].location;\n        bool _validated = MapWorkers[_workerAddress].tracks[_id].validated;\n        string memory _workerId = MapWorkers[_workerAddress].workerId;\n        \n        return(_date, _category, _observations, _location, _validated, _workerId);\n    }\n\n    function getNumberTracks (address _workerAddress) public view returns (uint) {\n\n        return MapWorkers[_workerAddress].lenghtTracks;\n    }\n\n    function getNumberWorkers () public view returns (uint) {\n\n        return numberWorkers;\n    }\n\n    function getWorker (uint i) public view returns (address) {\n\n        return IterateWorkers[i];\n    }\n\n    function getWorkerId (address _workerAddress) public view returns (string memory) {\n\n        return MapWorkers[_workerAddress].workerId;\n    }\n    \n    function validate (address _workerAddress, uint _id) public onlyCompany {\n        \n        require(companyAddress == msg.sender);\n        MapWorkers[_workerAddress].tracks[_id].validated = true;\n\n        emit logValidated(\"Track validated for worker: \", _workerAddress, _id);\n    } \n}",
  "sourcePath": "/Users/juanfornell/Repositories/workdaychain/contracts/Company.sol",
  "compiler": {
    "name": "solc",
    "version": "0.5.0+commit.1d4f565a.Emscripten.clang"
  },
  "schemaVersion": "3.0.2",
  "updatedAt": "2019-04-19T15:57:12.251Z",
  "devdoc": {
    "methods": {}
  },
  "userdoc": {
    "methods": {}
  }
}